:020000040800F2
:1000000058CA0020150300083D2D0008412D0008A6
:10001000452D0008492D00084D2D00080000000066
:10002000000000000000000000000000512D00084A
:10003000552D000800000000592D00085D2D000816
:10004000612D0008652D0008692D00086D2D000840
:10005000712D0008752D0008792D00087D2D0008F0
:10006000812D0008852D0008892D00088D2D0008A0
:10007000912D0008952D0008992D00089D2D000850
:10008000A12D0008A52D0008A92D0008AD2D000800
:10009000B12D0008B52D0008B92D0008BD2D0008B0
:1000A000C12D0008C52D0008C92D0008CD2D000860
:1000B000D12D0008D52D0008DD2D0008E12D000808
:1000C000E52D0008E92D0008ED2D0008F12D0008B0
:1000D000F52D0008F92D0008732E0008772E000872
:1000E0007B2E00087F2E0008832E0008872E000834
:1000F0008B2E00088F2E0008932E0008972E0008E4
:100100009B2E00089F2E0008A72E0008AB2E00088B
:10011000AF2E0008B32E0008B72E0008BB2E000833
:10012000BF2E0008C32E0008C72E0008CB2E0008E3
:10013000E52E0008E92E0008ED2E0008F12E00083B
:10014000F52E0008F92E0008FD2E0008012F0008EA
:10015000052F0008092F00080D2F00082F030008A5
:10016000112F0008152F0008192F00081D2F000857
:10017000212F0008252F0008292F00082D2F000807
:10018000312F0008352F000800F002F800F0B2F817
:100190000AA090E8000C82448344AAF10107DA45E2
:1001A00001D100F0A7F8AFF2090EBAE80F0013F082
:1001B000010F18BFFB1A43F001031847F83803007A
:1001C000183903000A444FF0000C10F8013B13F0FB
:1001D000070408BF10F8014B1D1108BF10F8015BA0
:1001E000641E05D010F8016B641E01F8016BF9D193
:1001F00013F0080F1EBF10F8014BAD1C0C1B09D1EA
:100200006D1E58BF01F801CBFAD505E014F8016B5B
:1002100001F8016B6D1EF9D59142D6D370470000ED
:100220000023002400250026103A28BF78C1FBD8FF
:10023000520728BF30C148BF0B6070476E2913F0CA
:100240005184702913F03A81662914F032856529AA
:1002500014F02F85672914F02C856129AFF30080F5
:1002600003681B0A28BF41F08001692913F06C80E4
:10027000642913F06980752913F066806F2913F0E3
:10028000C580782913F00681E92913F0ED84E4296B
:1002900013F0EA84F52913F0E784EF2913F0C28004
:1002A000F82913F005810368DB0928BF41F08001BC
:1002B000632913F05C84732913F06184E32913F03C
:1002C000B087F32913F0B587002070471FB514F0ED
:1002D000EBFC13F095FB04000020002114F0B8FCA7
:1002E000401C60600020002114F0C8FCE0601FBDCD
:1002F00010B510BD13F0C5FF1146FFF7E7FF02F080
:10030000CEF914F095F803B4FFF7F2FF03BC02F046
:10031000EBF800000948804709480047FEE7FEE780
:10032000FEE7FEE7FEE7FEE7FEE7FEE7FEE7FEE7A5
:1003300004480549054A064B704700002330000871
:100340008901000858C4002058CA002058C600205F
:1003500058C6002033490143334A1160704770B5D5
:10036000002100230F22C47824B32F4C246804F406
:10037000E064C4F5E064C4F30721C1F10404E3B20E
:100380000A4144789C40E1B28478144021430C0730
:10039000210E264C05786155047804F01F050124D0
:1003A000AC4005786D114FF0E02606EB8505C5F8E9
:1003B000004109E0047804F01F040125A5401C4C0D
:1003C0000678761144F8265070BD1A4A0A40024356
:1003D000154B1B1F1A60704739B1134A121D126862
:1003E0000243114B1B1D1A6006E00F4A121D1268D2
:1003F00082430D4B1B1D1A607047042808D14FF033
:10040000E021096941F004014FF0E022116107E0A9
:100410004FF0E021096921F004014FF0E022116161
:10042000704700000000FA050CED00E000E400E079
:1004300080E100E080FFFF1F016821F00101016001
:100440000021016041608160C16001612121416141
:10045000DA49884204D13D21D84A103A91608CE0B3
:10046000D6491831884205D14FF47461D34A103A05
:10047000916082E0D1493031884205D14FF4741146
:10048000CE4A103A916078E0CC494831884205D193
:100490004FF07461C94A103A91606EE0C74960310B
:1004A000884204D1C649C54A103AD16065E0C349C3
:1004B0007831884204D1C349C04A103AD1605CE027
:1004C000BE499031884204D1BF49BC4A103AD1603C
:1004D00053E0BA49A831884205D14FF03D51B74A9F
:1004E000103AD16049E0B949884204D13D21B74A68
:1004F000083A116041E0B5491831884205D14FF4FE
:100500007461B24A083A116037E0B049303188422C
:1005100005D14FF47411AD4A083A11602DE0AB4992
:100520004831884205D14FF07461A84A083A1160F9
:1005300023E0A6496031884204D1A149A34A121F91
:1005400011601AE0A1497831884204D19D499F4A3F
:10055000121F116011E09D499031884204D19A49DF
:100560009A4A121F116008E09849A831884204D1C4
:100570004FF03D51954A121F1160704710B500228F
:100580000268934B1A40CC680B6823434C692343A1
:100590008C692343CC6923430C6A23434C6A23436D
:1005A0008C6A23434C6B23438C6B23431A430260B6
:1005B000426922F00702D1E90B3423431A43426116
:1005C0000B6943604B6883608B68C36010BD00217A
:1005D000016041608160C160016141618161C1610F
:1005E000016241628162C16201634163816370475C
:1005F00021B1026842F00102026003E0026822F0C9
:1006000001020260704721B1026842F400420260B8
:1006100003E0026822F400420260704721B10268E0
:1006200042F02002026003E0026822F02002026031
:100630007047416070470146486880B2704722B1F8
:10064000036843F40023036003E0036823F40023FA
:1006500003600161704721B1026842F480220260A8
:1006600003E0026822F48022026070470AB101614F
:1006700000E0C1607047014600200A6812F4002FB4
:1006800001D0012000E000207047014600200A68E8
:1006900012F0010F01D0012000E000207047014658
:1006A00000204A6902F03800704730B503460A4618
:1006B00000200024454DAB4202D24049103901E0F0
:1006C0004249103912F0005F01D04C6800E00C681C
:1006D000404D2C40144201D0012000E0002030BDEC
:1006E00002463A4B9A4202D23448103801E0374869
:1006F000103811F0005F03D0364B0B40C36002E0AE
:10070000344B0B408360704710B511F0800F09D057
:1007100022B1436943F08003436103E0436923F05E
:100720008003436180290BD02AB1036801F01E04C5
:100730002343036004E0036801F01E04A343036045
:1007400010BD70B502460020002400251F4EB242A5
:1007500002D21A4B103B01E01C4B103B1E4E3142A3
:1007600006D01E2606EAD124166806EA040502E031
:10077000566906F0800511F0005F01D05C6800E06A
:100780001C68144E34400C4202D00DB1012000E030
:10079000002070BD02460D4B9A4202D20748103825
:1007A00001E00A48103811F0005F03D0094B0B40FC
:1007B000C36002E0074B0B4083607047106002404B
:1007C0003D000020400F002000003D20106402404A
:1007D0003F801CF07D0F7D0F3C0F3C0F10B5044691
:1007E0009848844208D10121084600F086FB002188
:1007F000012000F082FB76E09348844208D1012179
:10080000022000F07AFB0021022000F076FB6AE073
:100810008E48844208D10121042000F06EFB0021A3
:10082000042000F06AFB5EE08948844208D101217F
:10083000082000F062FB0021082000F05EFB52E07F
:100840008448844208D10121102000F056FB002189
:10085000102000F052FB46E07F48844208D101217D
:10086000202000F04AFB0021202000F046FB3AE067
:100870007A48844208D10121402000F03EFB00214B
:10088000402000F03AFB2EE07548844208D1012157
:10089000802000F032FB0021802000F02EFB22E0BF
:1008A0007048844208D10121801500F026FB002108
:1008B000A01500F022FB16E06B48844208D101210C
:1008C000401500F01AFB0021601500F016FB0AE04D
:1008D0006648844207D10121001500F00EFB00217B
:1008E000201500F00AFB10BDF0B50A4600210023D8
:1008F000002400BF3DE0012505FA01F3156805EA73
:1009000003049C4234D105684F000326BE40B54322
:10091000056015794E00B5400668354305601579C8
:10092000012D02D01579022D16D185684F000326BE
:10093000BE40B543856055794E00B5408668354365
:100940008560456801268E40B543456045689679C7
:100950008E40B6B235434560C5684F000326BE40A1
:10096000B543C560D5794E00B540C6683543C5600E
:10097000491C1029BFD3F0BD4FF6FF710160002163
:10098000017141718171C171704708B54FF48032B6
:100990000092009A0A430092009AC261C161009AD3
:1009A000C261C2690092C269009208BD024600207D
:1009B00013690B4201D0012000E00020704701467E
:1009C000086980B270470246002053690B4201D08B
:1009D000012000E0002070470146486980B270475E
:1009E00001837047418370470AB1018300E041836E
:1009F00070474161704742694A4042617047F0B5B3
:100A0000002300244D07ED0E02FA05F3CE1000F18D
:100A1000200555F826504E07F70E0F26BE40B54369
:100A2000CF1000F1200646F82750CE1000F1200527
:100A300055F8265045EA0304CE1000F1200545F88C
:100A40002640F0BD000002400004024000080240C1
:100A5000000C024000100240001402400018024046
:100A6000001C0240002002400024024000280240F6
:100A7000F948006840F00100F74908600020F64995
:100A800008310860F4480068F4490840F2490860F9
:100A9000F348091D0860F348EF4984310860F048C5
:100AA0001038091D0860EC48006820F48020EA49ED
:100AB00008600020E8490C310860E7498C31086083
:100AC00070470021E44A921C11701146087070476B
:100AD00010B501460022002300204A11012A02D14C
:100AE000DD4C236808E0022A03D1DB4C7034236814
:100AF00002E0D94C7434236801F01F0201249440B1
:100B00001C4201D0012000E0002010BD38B50020BB
:100B100000900024002500BF3120FFF7D9FF0546D3
:100B20000098401C00900098B0F5A04F01D0002D17
:100B3000F2D03120FFF7CCFF08B1012400E00024FF
:100B4000204638BD01460020C34A106820F0F80056
:100B500040EAC10010607047C34908607047002137
:100B6000BD4A703211701170012802D004280AD1D8
:100B700004E00121B84A7032117005E00521B64A3F
:100B80007032117000E000BF00BF7047B7490860C5
:100B9000704770B5049C41EA82150126C6EB5306E6
:100BA00045EA0645054345EA0465AB4E361D35600A
:100BB00070BDAD4908667047820142EA0172A64BDA
:100BC00084331A607047A8498866704710B583015E
:100BD00043EA016343EA02739F4C8834236010BDEB
:100BE000A14908677047A049C864704702460020C1
:100BF000994B0833186820F0EC6042EA010318436F
:100C0000954B08331860704702460020924B08331A
:100C1000186820F0784042EA010318438E4B0833ED
:100C200018607047014600208B4A0832106820F097
:100C3000030008431060704787480830006800F0E0
:100C40000C00704701460020834A0832106820F0EB
:100C5000F000084310607047014600207E4A0832C9
:100C6000106820F4E05008431060704701460020EF
:100C7000794A0832106820F4604040EAC1001060F0
:100C80007047F0B50021002200240225002602232F
:100C9000714F08373F6807F00C0121B1042905D0D6
:100CA000082937D105E0724F076036E0714F0760C1
:100CB00033E0694F3F1D3F68C7F38056664F3F1DC5
:100CC0003F6807F03F036EB16A4FB7FBF3F7DFF8F9
:100CD00088C10CF1040CDCF800C0CCF3881C07FBC5
:100CE0000CF40CE0624FB7FBF3F7DFF86CC10CF1CA
:100CF000040CDCF800C0CCF3881C07FB0CF4564F46
:100D00003F1D3F68C7F301477F1C7D00B4FBF5F72B
:100D1000076002E0564F076000BF00BF4E4F083724
:100D20003F6807F0F0010909534F7A5C0768D74024
:100D30004760494F08373F6807F4E051890A4E4F32
:100D40007A5C4768D7408760434F08373F6807F4AD
:100D50006041490B484F7A5C4768D740C760F0BD97
:100D6000002100F44072B2F5407F0AD13A4A0832BD
:100D7000116821F4F811414A02401143364A083201
:100D80001160354A70321268C0F30B031A43324BBC
:100D900070331A60704735494439086070473349E9
:100DA00040390860704736490860704701460020A6
:100DB000294A8C32106820F01F004A1E1043264A30
:100DC0008C321060704701460020234A8C32106834
:100DD00020F4F8504A1E40EA02201F4A8C3210606C
:100DE0007047014600201C4A8C32106820F44010E5
:100DF00008431060704701460020174A8C32106883
:100E000020F4400008431060704701460020124A59
:100E10008C32106820F44030084310607047194944
:100E20000860704739B10C4A3032126802430A4BED
:100E300030331A6006E0084A303212688243064BAB
:100E400030331A607047F9B1034A343212680243F2
:100E5000014B34331A601CE000380240FFFFF6EA11
:100E6000103000240030002000004742800E47422E
:100E70000024F40000127A0000000020FFFCFF0FA5
:100E80005C014742E01147428F4A126882438E4B11
:100E90001A60704739B18C4A121D126802438A4B9E
:100EA0001B1D1A6006E0884A121D12688243864B99
:100EB0001B1D1A60704739B1834A0C321268024315
:100EC000814B0C331A6006E07F4A0C321268824371
:100ED0007D4B0C331A60704739B17B4A103212686F
:100EE0000243794B10331A6006E0774A10321268D9
:100EF0008243754B10331A60704739B1724A243AF5
:100F000012680243704B243B1A6006E06E4A243A92
:100F1000126882436C4B243B1A60704739B16A4AAD
:100F2000203A12680243684B203B1A6006E0664A8A
:100F3000203A12688243644B203B1A60704739B1F3
:100F4000614A1C3A126802435F4B1C3B1A6006E080
:100F50005D4A1C3A126882435B4B1C3B1A60704727
:100F600039B1594A143A12680243574B143B1A607C
:100F700006E0554A143A12688243534B143B1A60F8
:100F8000704739B1504A103A126802434E4B103B39
:100F90001A6006E04C4A103A126882434A4B103BF2
:100FA0001A60704739B1484A1C3212680243464BF6
:100FB0001C331A6006E0444A1C3212688243424BDA
:100FC0001C331A60704739B13F4A2032126802431D
:100FD0003D4B20331A6006E03B4A203212688243C0
:100FE000394B20331A60704739B1374A24321268BE
:100FF0000243354B24331A6006E0334A2432126828
:101000008243314B24331A60704739B12E4A2C3257
:10101000126802432C4B2C331A6006E02A4A2C3209
:1010200012688243284B2C331A60704739B1264A24
:10103000303212680243244B30331A6006E0224AF1
:10104000303212688243204B30331A6070470128D7
:1010500008D11D493C31096841F008011A4A3C3267
:10106000116007E018493C31096821F00801164A6F
:101070003C321160704739B1134A273A1278024363
:10108000114B273B1A7006E00F4A273A1278824329
:101090000D4B273B1A7070470B484030006840F0FA
:1010A0008070094940310860704701460020064AB7
:1010B000283A12680A4201D0012000E0002070475F
:1010C00001492639087070473438024010B50121B3
:1010D000C802FFF756FF00214FF40060FFF751FFF1
:1010E00010BD00216B4A116847F6FF629143027DF3
:1010F00083681A4343681A43C3681A4303681A4350
:1011000003691A431143634A116070470021017556
:10111000016041608160C160016170475E490860A3
:1011200070475C49091F086070475A48001F0068F3
:1011300000F0030070470021564B1B1D02681A6027
:101140001A1D11686FF30A01D0E901231A43C3681D
:101150001A4303691A4311434E4A0832116070471B
:101160000021016041608160C160016170474948B0
:101170000C300068C0B2704708B5014600200090EE
:1011800044481030084400900098006808BD0021D1
:10119000404B203302681A601B1D42681A601A1DFA
:1011A000116821F0F701D0E902231A4303691A43B9
:1011B00043691A431143374A2832116070474FF090
:1011C000FF310160002141608160C16001614161C6
:1011D000704730482C30006870472E487C300068DB
:1011E00070472C497C31086070472A4844300068B9
:1011F00070472A49086070472849091D08607047F0
:10120000264908310860704724490C31086070474E
:1012100023490860704723490860704701218143D2
:10122000214A116070472149086070471B491439F1
:101230000860704739B1174A383212680243154BBB
:1012400038331A6006E0134A383212688243114B71
:1012500038331A607047014600200E4A3032126857
:101260000A4201D0012000E00020704709493431D2
:101270000860704701460020064A303212680A4270
:1012800001D0012000E0002070470249343108609D
:1012900070470000042C0140A0802542A085254213
:1012A000AC812542B0812542B4812542B8812542D6
:1012B00010B50446FE48844208D101210846FFF7D4
:1012C00060FE00210120FFF75CFE9DE0B4F1804F3D
:1012D00008D101210846FFF743FE00210120FFF756
:1012E0003FFE91E0F348844208D101210220FFF73C
:1012F00037FE00210220FFF733FE85E0EE488442EE
:1013000008D101210420FFF72BFE00210420FFF764
:1013100027FE79E0E948844208D101210820FFF73F
:101320001FFE00210820FFF71BFE6DE0E448844209
:1013300008D101211020FFF713FE00211020FFF734
:101340000FFE61E0DF48844208D101212020FFF731
:1013500007FE00212020FFF703FE55E0DA48844213
:1013600008D101210220FFF70CFE00210220FFF727
:1013700008FE49E0D548844209D101210804FFF75D
:1013800000FE00214FF48030FFF7FBFD3CE0D04829
:10139000844209D101214804FFF7F3FD00214FF4F5
:1013A0000030FFF7EEFD2FE0CA48844209D1012149
:1013B0008804FFF7E6FD00214FF48020FFF7E1FDF0
:1013C00022E0C548844208D101214020FFF7C8FD32
:1013D00000214020FFF7C4FD16E0C048844208D138
:1013E00001218020FFF7BCFD00218020FFF7B8FD20
:1013F0000AE0BB48844207D101218015FFF7B0FD08
:101400000021A015FFF7ACFD10BD00220288A84BFB
:1014100098420ED0AC4B98420BD0B0F1804F08D020
:10142000A44B984205D0A44B984202D0A34B9842BB
:1014300004D14FF68F731A404B881A43A04B984241
:1014400007D0A04B984204D04FF6FF431A400B89B7
:101450001A4302804B68C3620B880385944B984201
:1014600002D0994B984201D18B7A03860123838263
:1014700070474FF0FF3141600021018001814180C0
:10148000817270470185828270470A460021018877
:101490004FF68F73194011430180704741627047C6
:1014A000C16270470146486A70470146088D70471F
:1014B00021B1028842F00202028004E002884FF665
:1014C000FD731A400280704721B1028842F0040285
:1014D000028004E002884FF6FB731A4002807047D6
:1014E00021B1028842F08002028004E002884FF6B7
:1014F0007F731A400280704702884FF6F7731A40D4
:10150000028002880A430280704702884FF6FF4338
:101510001A40028002880A430280704721B1028883
:1015200042F00102028004E002884FF6FE731A4086
:101530000280704770B5002400220023058C4FF60E
:10154000FE7635400584028C8388048B4FF68F75B8
:101550002C40B51E2C400D882C43751E2A408D89C9
:101560002A434D882A43524DA84202D0564DA842E4
:1015700013D14FF6F7752A40CD892A434FF6FB75F4
:101580002A408D882A434FF6FF652B404FF6FF55C2
:101590002B400D8A2B434D8A2B43838004838D6817
:1015A0004563028470BD70B5002400220023058CC1
:1015B0004FF6EF7635400584028C8388048B48F61D
:1015C000FF752C404FF6FF452C400D884FF6FF76F7
:1015D00006EA05252C434FF6DF752A408D8906EA79
:1015E00005152A434D8806EA05152A43304DA842C1
:1015F00002D0354DA8421DD14FF67F752A40CD89C6
:101600004FF6FF7606EA05152A434FF6BF752A40C6
:101610008D8806EA05152A434FF6FF352B404FF219
:10162000FF752B400D8A06EA85052B434D8A06EA95
:1016300085052B43838004838D688563028470BD98
:1016400070B5002400220023058C4FF6FF6635405C
:101650000584028C8388848B4FF68F752C404FF65F
:10166000FC752C400D882C434FF6FF552A408D8980
:101670004FF6FF7606EA05252A434D8806EA05253A
:101680002A430B4DA84202D00F4DA84238D14FF249
:10169000FF752A40CD894FF6FF7606EA05252A43D5
:1016A0004FF6FF352A408D8806EA05252A4319E0C2
:1016B000000001400004004000080040000C004011
:1016C00000100040001400400004014000400140B0
:1016D000004401400048014000180040001C004048
:1016E000002000404EF6FF752B404DF6FF752B4055
:1016F0000D8A06EA05152B434D8A06EA05152B438C
:10170000838084838D68C563028470BD70B50022B8
:1017100000230024058C4EF6FF7635400584038CAB
:101720008488828B48F6FF752A404FF6FF452A4091
:101730000D884FF6FF7606EA05252A434DF6FF751C
:101740002B408D8906EA05352B434D8806EA053581
:101750002B43FE4DA84202D0FD4DA84208D14BF6C6
:10176000FF752C400D8A4FF6FF7606EA85152C434F
:10177000848082838D680564038470BD00210180AC
:101780004180818081608181C18101824182704775
:1017900070B50346002000241846183001258D40FE
:1017A000ACB21D8CA5431D8409B108290AD100EBF8
:1017B000610005684FF68F76354005600568154372
:1017C00005600FE00D1FC5F34E052844056848F677
:1017D000FF763540056005684FF6FF7606EA02267B
:1017E0003543056070BD4163704781637047C163D5
:1017F0007047016470470A460021018B4FF68F73D2
:1018000019401143018370470A460021018B48F6B5
:10181000FF7319404FF6FF7303EA02231943018354
:1018200070470A460021818B4FF68F731940114390
:10183000818370470A460021818B48F6FF73194067
:101840004FF6FF7303EA02231943818370470A4668
:101850000021018B4FF6F773194011430183704744
:101860000A460021018B4FF2FF7319404FF6FF73B8
:1018700003EA02231943018370470A460021818B42
:101880004FF6F77319401143818370470A460021D0
:10189000818B4FF2FF7319404FF6FF7303EA022367
:1018A0001943818370470A460021018B4FF6FB7371
:1018B00019401143018370470A460021018B4FF6FE
:1018C000FF3319404FF6FF7303EA022319430183E4
:1018D00070470A460021818B4FF6FB731940114374
:1018E000818370470A460021818B4FF6FF331940F0
:1018F0004FF6FF7303EA02231943818370470A46B8
:101900000021018B4FF67F7319401143018370470B
:101910000A460021018BC1F30E014FF6FF7303EA63
:1019200002231943018370470A460021818B4FF639
:101930007F7319401143818370470A460021818BD0
:10194000C1F30E014FF6FF7303EA022319438183AB
:1019500070470A460021018C4FF6FD731940114370
:10196000018470470A460021018C4FF6F773194035
:101970001143018470470A460021018C4FF6DF7342
:1019800019404FF6FF7303EA0213194301847047AD
:101990000A460021018C4FF67F7319404FF6FF7302
:1019A00003EA02131943018470470A460021018C9F
:1019B0004FF6FF5319404FF6FF7303EA0223194312
:1019C000018470470A460021018C4FF2FF731940D1
:1019D0004FF6FF7303EA02231943018470470A4656
:1019E0000021018C4DF6FF7319404FF6FF7303EA97
:1019F000023319430184704730B5002301248C4021
:101A0000A3B2048C9C430484048C02FA01F5ADB2A9
:101A10002C43048430BD30B5002304248C40A3B291
:101A2000048C9C430484048C02FA01F5ADB22C436F
:101A3000048430BD828B4FF2FF331A408283828B45
:101A40004FF6FF7303EA01231A4382837047F0B510
:101A50000C461546002100220026078C4EF6FF7C1E
:101A600007EA0C070784818B028C4FF6FF7707EAA1
:101A7000043640F6FF4739404FF6FF7707EA05275F
:101A800039434FF6FF7707EA0337394345F6FF77C7
:101A90003A4046F480573A4381830284F0BD828BFA
:101AA0004FF6F3731A408283828B0A438283704716
:101AB000F0B50C461546002100220026078C4FF693
:101AC000FF6C07EA0C070784818B028C4FF6FF77C7
:101AD00007EA04264FF60C7739404FF6FF7707EAFE
:101AE00003172F4339434FF2FF573A4046F48077AC
:101AF0003A4381830284F0BD028B4FF2FF331A40D8
:101B00000283028B4FF6FF7303EA01231A43028319
:101B10007047F0B50C461546002100220026078CC0
:101B20004FF6EF7C07EA0C070784018B028C4FF617
:101B3000FF7707EA041640F6FF4739404FF6FF7774
:101B400007EA033739434FF6FF7703E0000001400F
:101B50000004014007EA052739434FF65F773A4012
:101B600046F010073A4301830284F0BD028B4FF622
:101B7000F3731A400283028B0A4302837047F0B565
:101B80000C46154600210022068C4FF6FE773E409B
:101B90000684018B028C4FF60C7631407E1C06EADF
:101BA00003162E4331434FF6F576324044F00106DA
:101BB000324301830284F0BD70B505460C4620888F
:101BC00050B92389A28861882846FFF7D8FFE188A9
:101BD0002846FFF7CBFF25E0208804280AD1238977
:101BE000A28861882846FFF794FFE1882846FFF71E
:101BF00083FF17E0208808280AD12389A2886188FA
:101C00002846FFF755FFE1882846FFF748FF09E01F
:101C10002389A28861882846FFF719FFE1882846B2
:101C2000FFF708FF70BD0021018041800121818004
:101C30000021C180018170472DE9F04105460C4625
:101C400000260127608808B9022600E00026A08847
:101C5000012801D1022700E001272088A0B92389AB
:101C6000A28861882846FFF78AFFE1882846FFF7A7
:101C70007DFF23893A4631462846FFF74AFFE1882F
:101C80002846FFF739FF13E02389A2886188284698
:101C9000FFF73FFFE1882846FFF72EFF23893A46EA
:101CA00031462846FFF76BFFE1882846FFF75EFFC5
:101CB000BDE8F0810146486B70470146886B70476C
:101CC0000146C86B70470146086C70470A884B880C
:101CD0001A438B881A43CB881A430B891A434B89C2
:101CE0001A438B891A43A0F84420704700210180D1
:101CF00041808180C180018141818181704731B102
:101D0000B0F8442042F40042A0F8442005E0B0F8C6
:101D10004420C2F30E02A0F84420704721B182880B
:101D200042F00402828004E082884FF6FB731A407E
:101D30008280704721B1828842F00102828004E0F3
:101D400082884FF6FE731A40828070471AB18389E9
:101D50000B43838102E083898B43838170478182B7
:101D6000704702460020138A0B4201D0012000E098
:101D700000207047CA430282704730B502460020F7
:101D800000230024158A05EA0103958905EA010468
:101D900013B10CB1012000E0002030BDCA43028223
:101DA000704741EA0203A0F8483070471AB18389AE
:101DB0000B43838102E083898B438381704721B188
:101DC000828842F00802828004E082884FF6F7732E
:101DD0001A408280704701894FF6F87211400181E4
:101DE00070470A46002101894FF68F73194011434D
:101DF0000181704730B504460D4629462046FFF75D
:101E0000F0FF208940F00700208130BD2DE9F0412E
:101E100004460D4616461F46602D06D13B4601225C
:101E200031462046FFF775FE05E03B46012231466C
:101E30002046FFF7A4FE29462046FFF7D2FF20895F
:101E400040F007002081BDE8F08130B50C4600214C
:101E50000189C9B24FF6FF7505EA032515432543ED
:101E60002943018130BD2DE9F04105460E46174654
:101E70009846002443463A4631462846FFF7E5FF98
:101E80002C894FF6F870044044F007044FF68F7029
:101E9000044044F070042C81BDE8F081F0B50446A4
:101EA0000D4616461F463B46324629462046FFF75A
:101EB000CCFF208940F480402081F0BD82884FF61D
:101EC0008F731A40828082880A4382807047028919
:101ED0004FF6F8731A40028102890A430281704763
:101EE00002894FF67F731A40028102890A430281F8
:101EF0007047F0B50C4615461E460021002200230F
:101F00000189028B038C4FF6F877394021434FF655
:101F1000FC473A4040F201173A434FF6DD773B4029
:101F20004FF6FF7707EA06172F433B4301810283F1
:101F30000384F0BD21B1828842F08002828004E0F7
:101F400082884FF67F731A4082807047A0F8501045
:101F50007047000010B50446FA48844208D10121B8
:101F60001020FFF70EF800211020FFF70AF857E0C5
:101F7000F548844209D101214804FEF7F1FF002110
:101F80004FF40030FEF7ECFF4AE0F048844209D1FC
:101F900001218804FEF7E4FF00214FF48020FEF7C2
:101FA000DFFF3DE0EA48844209D10121C804FEF781
:101FB000D7FF00214FF40020FEF7D2FF30E0E548C4
:101FC000844209D101210805FEF7CAFF00214FF420
:101FD0008010FEF7C5FF23E0DF48844208D10121CD
:101FE0002020FEF7CEFF00212020FEF7CAFF17E0D9
:101FF000DA48844209D101218807FEF7B1FF0021A8
:102000004FF08040FEF7ACFF0AE0D548844207D18C
:1020100001214005FEF7A4FF00216005FEF7A0FFA7
:1020200010BD2DE9FF4705460E460024A14600BF1E
:10203000A046B08900B100BF2C8A24F44054F08837
:1020400004432C82AC8941F20C608443B08831890E
:102050000843718908430443AC81AC8A24F440747A
:10206000B0890443AC826846FEF70BFEB548854252
:1020700002D0B948854202D1DDF80C9001E0DDF8CC
:102080000890A88910F4004F08D009EBC90000EBB4
:10209000091031684900B0FBF1F707E009EBC9000E
:1020A00000EB091031688900B0FBF1F76420B7FB41
:1020B000F0F004012009642101FB1078A88910F4D4
:1020C000004F08D0322000EBC800B0FBF1F000F068
:1020D0000700044308E0322000EB08106421B0FB45
:1020E000F1F000F00F0004432C81BDE8FF874FF4AE
:1020F0001651016000218180C18001810C21418144
:1021000000218181704710B502460020108A20F41A
:1021100070600B884C8823438C882343CC882343EE
:102120001843108210BD0021018041808180C18050
:10213000704721B1828942F40052828104E0828991
:102140004DF6FF731A4082817047028B02F47F4282
:102150000283028B0A430283704721B1828942F4D1
:102160000042828103E08289C2F30E0282817047BD
:1021700021B1828A42F40062828204E0828A4FF2B4
:10218000FF731A4082827047C1F308028280704751
:1021900001468888C0F308007047028A4FF6F07342
:1021A0001A400282028A0A430282704721B1828960
:1021B00042F00202828104E082894FF6FD731A40E8
:1021C0008281704782894FF2FF731A40828182892F
:1021D0000A4382817047028A4FF6DF731A400282F7
:1021E000028A0A430282704721B1028A42F4804285
:1021F000028204E0028A4BF6FF731A4002827047A3
:10220000818941F001018181704721B1828A42F0C8
:102210000802828204E0828A4FF6F7731A408282B3
:102220007047028BD2B20283028B42EA0122028300
:10223000704721B1828A42F02002828204E0828AC1
:102240004FF6DF731A408282704721B1828A42F0D2
:102250001002828204E0828A4FF6EF731A40828273
:102260007047828A4FF6FB731A408282828A0A4341
:102270008282704721B1828A42F00202828204E0A7
:10228000828A4FF6FD731A40828270471AB1838AA0
:102290000B43838202E0838A8B4383827047F0B5CD
:1022A00003460024002600250020A1F510676A3FA0
:1022B00000D100BF1846C1F3421401F01F060127E8
:1022C00007FA06F5012C01D10C3004E0022C01D1F3
:1022D000103000E014301AB107682F43076002E0A5
:1022E0000768AF430760F0BD02460020B1F5007FEC
:1022F00000D100BF13880B4201D0012000E0002074
:10230000704701F40072B2F5007F00D100BFCA43EC
:102310000280704770B5024600240023002500208B
:10232000A1F510666A3E00D100BFC1F3421501F06D
:102330001F03012606FA03F3012D13D196893340BA
:1023400017E0000000100140004400400048004039
:10235000004C004000500040001401400078004054
:10236000007C0040022D02D1168A334001E0968A9B
:1023700033400C12012606FA04F41688344013B1D7
:102380000CB1012000E0002070BD10B50022002338
:10239000A1F510646A3C00D100BF0A1201249440E8
:1023A000A3B2DC43048010BD1CB501210420FEF75C
:1023B00039FD0420009001208DF8040000208DF8E4
:1023C000060003208DF8050001208DF807006946FE
:1023D0000348FEF789FA04210148FEF701FB1CBD02
:1023E0000008024000203A490860091D0860091DE4
:1023F0000860091D0860364924310860091D08601D
:10240000091D086033483249383108600020091D31
:10241000086070471CB501212F48FEF703FD01211C
:10242000C802FEF759FD0121C802FEF7AAFD4FF4CC
:10243000F850009002208DF804008DF8050000206F
:102440008DF8060001208DF8070069462348FEF745
:102450004BFA0420009069462148FEF745FA0C2209
:1024600008211E48FEF7CBFA0C2209211B48FEF773
:10247000C6FA0C220A211948FEF7C1FA0C220B21D8
:102480001648FEF7BCFA0C2211461448FEF7B7FABC
:102490000C2202211248FEF7B2FA00214FF400602C
:1024A000FEF76FFDFFF79EFF4FF480500090032072
:1024B0008DF8050001208DF8040000208DF806003D
:1024C00001208DF8070069460648FEF70DFA1CBD8D
:1024D000002C0140FF07C0000E0040000008024031
:1024E000000C02400004024000BF704700BF3F4A9A
:1024F000128812F0400FFAD0C2B23C4B9A8070475B
:1025000010B588B0044601210846FEF78BFC012176
:102510001020FEF7E1FC072209213548FEF76FFA8B
:1025200007220A213248FEF76AFA4FF4C06006908B
:1025300002208DF81C008DF81D0000208DF81E0073
:1025400001208DF81F0006A92948FEF7CDF9029455
:102550000020ADF80C00ADF80E00ADF81000ADF89D
:1025600014000C20ADF8120002A92048FFF759FD15
:1025700001211E48FFF7DDFD40211C48FFF7C1FE89
:10258000012240F225511948FFF789FE25208DF8D8
:10259000040000208DF8050004208DF806000120BD
:1025A0008DF8070001A8FDF7DAFE08B010BD2DE98F
:1025B000F04107460D461646002410E00A2094FB21
:1025C000F0F100FB114018B914B10AA010F02CFE74
:1025D00015F8011B08A010F027FE601C84B2B4425D
:1025E000ECDB04A010F020FEBDE8F08100100140FB
:1025F000000002400A0000003078253278202020B8
:102600002020000010B501211E48FEF787FF10BDF5
:1026100010B500211B48FEF781FF10BD1FB5012139
:102620000220FEF748FC40F6C310029042F2CF00B1
:10263000ADF804000020ADF80C00ADF8060001A9CB
:102640001048FEF7E2FE012241F61F410D48FEF759
:1026500019FF012211460B48FFF778FB01210948B9
:10266000FEF75CFF1D208DF8000000208DF80100B2
:1026700003208DF8020001208DF803006846FDF765
:102680006EFE1FBD0004004010B5044660680021C6
:1026900082692046904720460AF0FFFB10BD08B52E
:1026A000002600274FF4E060FDF754FEFFF77CFEA4
:1026B000FFF7B0FE4FF4E130FFF722FFA82000F053
:1026C00033F90FF054FF054667480078312803D1ED
:1026D00066A010F0A9FD02E066A010F0A5FD00279D
:1026E00011E028460FF080FF5F480078312800D1C4
:1026F0000BE062480078012804D1614961A010F024
:1027000093FD02E07F1C0A2FEBDB00BF56480378E5
:102710005F4A5B4928460FF059FF04F0ECFD524830
:102720000078302861D15EE0D5F8DC01012809D1BC
:102730004D480078302805D156A010F075FD62B6DE
:1027400000F082F8574803F063FD002E48D1554849
:10275000006A002844D05348006A006B00283FD02C
:102760005048006A406B00283AD04E48006A806B9F
:10277000002835D001264CA010F056FD4948006ACB
:1027800000F13004E0780090A3786278217848A0C6
:1027900010F04AFD4348006A00F13804E0780090E8
:1027A000A3786278217848A010F03EFD3D48006A89
:1027B00000F138033B48006A00F134023948006AEE
:1027C00000F13001374805F0A6F8364805F0E8F882
:1027D000344805F02DF900F03FFA00F046F901E029
:1027E00006B101E000BF9FE704E02E4802F0A2FB23
:1027F00000F032FA3AA010F017FD24E0D5F8DC0121
:10280000012809D118480078302805D121A010F0FE
:102810000BFD62B600F018F8224803F0F9FC04F052
:102820004BFD3C48006870B13B480068B0F86E0052
:102830004DF67061884206DD00230A1F374936488D
:10284000006800F0DAF9D9E7BFF34F8F3448006829
:1028500000F4E06033490843001D31490860BFF3CC
:102860004F8F00BFFEE70000280000200A414448C7
:102870004F430A000A494E4652410A001800002000
:1028800029000020257320666F756E64210A000000
:1028900049000020212121212172657365742021C6
:1028A0000A000000D81200200A44484350200A00C1
:1028B000646863702069703D25643A25643A256434
:1028C0003A25640A00000000646863702067773D61
:1028D00025643A25643A25643A25640A0A00000012
:1028E00023232323232323232323232328536570F4
:1028F0002031302032303135202D2031393A3134F9
:102900003A3233292323232323232323232323235B
:102910000A0000001C00002020000020304E0108AA
:102920000CED00E00000FA0510B504466FF004005D
:10293000FDF763FDE11704EB5171C910384A1170BE
:102940001046007800EB4001C1EBC0104FF6FF715C
:1029500001EAC0003349088010BD0146304A1278B0
:102960004A434FF0E0235A6100229A611A461269E5
:1029700042F001021A6100BF4FF0E022106910F02E
:10298000010F02D010F4803FF6D04FF0E022126920
:1029900022F001024FF0E0231A6100229A61704791
:1029A0000146204A12884A434FF0E0235A61002230
:1029B0009A611A46126942F001021A6100BF4FF093
:1029C000E022106910F0010F02D010F4803FF6D021
:1029D0004FF0E022126922F001024FF0E0231A6169
:1029E00000229A61704770B504464FF4077094FB5B
:1029F000F0F0C6B24FF4077094FBF0F100FB114009
:102A000085B205E04FF40770FFF7CAFF701EC6B22B
:102A1000002EF7D115B12846FFF7C2FF70BD0000A8
:102A20002400002026000020002000E0401CB0F51B
:102A30007A7FFBDB70472DE9F84380460D4614464C
:102A40001E46089F306800908FA010F0EDFB54B137
:102A5000FFF7EAFF3B466A462146284608F0D2FCCB
:102A6000204605F017F8BDE8F88338B500220B21A1
:102A7000032005F03FF804468BA010F0D5FB04B905
:102A800038BD8D48606008F03CFD054641F6907207
:102A90008A49284608F0F8FB4FF0FF3003F014FD98
:102AA000009041F690736A462146284608F0AAFC39
:102AB00041F690736A462146284608F0A3FC41F689
:102AC00090736A462146284608F09CFC0022AFF22B
:102AD0009901284608F0F4FC00BFD1E70346002026
:102AE00070472DE9F04107460E4614461D465DB974
:102AF00054B12189304606F0FEF822890023304681
:102B0000616808F001F807E035B92CB9304605F0E6
:102B100031FF00206A490873204604F0BBFF002003
:102B2000BDE8F08170B505460C461646654920465D
:102B300006F0DAFA6449204606F0D8FA0120604926
:102B40000873002070BD70B504460D465FA010F0FC
:102B50006BFB00205A49087370BD10B562A010F0DD
:102B600063FB012056490873644803F0ADFC5449E7
:102B7000486041F69070886006F0B1FA50490860EC
:102B8000002208684D4905F0ACFF4D4908685C49D2
:102B900006F0B2FA4A4909898AB24949AFF27B0381
:102BA0000868091D06F052F910BD10B555A010F0C7
:102BB0003BFB4348007B08B9FFF7CFFF10BD2DE971
:102BC000F04107460D4614461E4676B96CB1218980
:102BD000284606F090F84FA1606810F041FD20B142
:102BE0004D480068C0434C4908604C480560204689
:102BF00004F050FF0020BDE8F0812DE9FF41804640
:102C00000E46154641F21C1400270023042203A996
:102C1000404607F079FF08E0224607FB04610023E5
:102C2000404607F071FF2D1B7F1C002DF4DC404651
:102C300007F0F8FF002004B0BDE8F08170B505464C
:102C40000C4616460021204606F04EFA344920462E
:102C500006F04CFA002070BD10B532A010F0E4FA76
:102C600006F03DFA044642F2B8221449204605F027
:102C700038FFFF21204605F0B4FF04462E492046C8
:102C800006F03DFA10BD00002D2D2D2D756470202D
:102C90006861766520726563656976652D2D2D2DD9
:102CA0002D2D2D0A000000000A5544502062726F3D
:102CB0006164636173740A00B64C0108E04C01085A
:102CC00054050020C14C0108E32A000874637020F9
:102CD000636C69656E7420636F6E6E6563742065E6
:102CE00072726F720A0000005443505F636C696532
:102CF0006E745F696E69740A00000000642BA8C0DE
:102D0000472B00085265436F6E54637053657276AB
:102D100065720A00300000001C0000202000002026
:102D2000BF2B00080A496E69745F7463705F736536
:102D300072766572200A00003D2C000800BFFEE795
:102D400000BFFEE700BFFEE700BFFEE700BFFEE7F3
:102D500000BFFEE700BFFEE700BFFEE700BFFEE7E3
:102D600000BFFEE700BFFEE700BFFEE700BFFEE7D3
:102D700000BFFEE700BFFEE700BFFEE700BFFEE7C3
:102D800000BFFEE700BFFEE700BFFEE700BFFEE7B3
:102D900000BFFEE700BFFEE700BFFEE700BFFEE7A3
:102DA00000BFFEE700BFFEE700BFFEE700BFFEE793
:102DB00000BFFEE700BFFEE700BFFEE700BFFEE783
:102DC00000BFFEE700BFFEE700BFFEE700BFFEE773
:102DD00000BFFEE710B504F04FFA10BD00BFFEE7DC
:102DE00000BFFEE700BFFEE700BFFEE700BFFEE753
:102DF00000BFFEE700BFFEE710B540F225514E4888
:102E0000FFF788FA10B34C48FFF7C2F9C4B24B4839
:102E1000008810F4004F2BD14848008810F4804FF0
:102E20000CD00A2C03D000204449088020E04348FD
:102E3000008840F400404149088019E00D2C06D17B
:102E40003E48008840F480403C49088010E03B4800
:102E50000088C0F30D003A490C5438480088401CE3
:102E60003649088008460088C72801DD0020088010
:102E700010BD00BFFEE700BFFEE700BFFEE700BFDA
:102E8000FEE700BFFEE700BFFEE700BFFEE700BFB2
:102E9000FEE700BFFEE700BFFEE700BFFEE710B59C
:102EA00009F000FD10BD00BFFEE700BFFEE700BF58
:102EB000FEE700BFFEE700BFFEE700BFFEE700BF82
:102EC000FEE700BFFEE700BFFEE710B51D48006843
:102ED00010F0C05F05D04FF0C2511A485830FDF7CE
:102EE000FFFB10BD00BFFEE700BFFEE700BFFEE72F
:102EF00000BFFEE700BFFEE700BFFEE700BFFEE742
:102F000000BFFEE700BFFEE700BFFEE700BFFEE731
:102F100000BFFEE700BFFEE700BFFEE700BFFEE721
:102F200000BFFEE700BFFEE700BFFEE700BFFEE711
:102F300000BFFEE700BFFEE70010014010000020C8
:102F40008C040020006402400CB500200190009029
:102F50007548006840F480307349086000BF7248CB
:102F6000006800F4003000900198401C0190009827
:102F700018B90198B0F5A04FF1D16B48006810F472
:102F8000003F02D00120009001E000200090009856
:102F9000012845D164484030006840F080506249C3
:102FA000403108606148006840F440405F49086073
:102FB0005D48083000685C490831086008460068D0
:102FC00040F4004008600846006840F4A0500860E3
:102FD0005748091F0860081F006840F08070091FEB
:102FE000086000BF5048006810F0007FFAD040F23F
:102FF0000570504908604C480830006820F0030014
:103000004949083108600846006840F0020008603D
:1030100000BF45480830006800F00C000828F8D1CF
:103020000CBD10B54448006840F470004249086087
:103030003D48006840F001003B49086000203A49E3
:1030400008310860384800683C4908403649086043
:103050003B48091D0860081F006820F48020091FF4
:103060000860002030490C310860FFF76DFF4FF019
:10307000006031498039086010BD70B50020002221
:10308000022300240221284D08352D6805F00C008C
:1030900020B1042806D0082834D107E0294D2A4E53
:1030A000356033E0294D284E35602FE01E4D2D1D33
:1030B0002D68C5F380541C4D2D1D2D6805F03F0172
:1030C00054B1224DB5FBF1F5174E361D3668C6F3E7
:1030D000881605FB06F209E01A4DB5FBF1F5124E14
:1030E000361D3668C6F3881605FB06F20E4D2D1DFB
:1030F0002D68C5F301456D1C6B00B2FBF3F5124E54
:10310000356003E00F4D104E356000BF00BF064D27
:1031100008352D68C5F303150D4E705D0A4D2D68F9
:10312000C540094E356070BD003802400070004057
:1031300008544007003C024088ED00E0FFFFF6FE27
:10314000103000240024F4008000002000127A00D7
:103150008400002070B5054600BF002D09D100BFD6
:10316000ECA340F2BB52F1A1F9A010F05DF800BF52
:1031700070BD00BF2C6A00BF4CB900BFE5A340F290
:10318000BD52FDA1F2A010F04FF800BFF0E700BF64
:10319000E06910B1E06904F07DFC0020E06120628C
:1031A00000BFE5E710B5044600BF002C09D100BF01
:1031B000D8A340F2D252F9A1E5A010F035F800BF33
:1031C00010BD00BFFF21A28C501CA084206AF030EB
:1031D000815406E00021A28C501CA084206AF030AB
:1031E0008154A08C4428F5D394F8240010F0030FE8
:1031F000F0D100BFE4E7838C5A1C8284026AF0326B
:10320000D154704710B5848C631C8384036AF033F7
:103210001955848C631C8384036AF0331A5510BDDE
:1032200010B50B0A848C621C8284026AF03213553A
:10323000848C621C8284026AF032115510BD70B514
:10324000064600BF002E0BD100BFB2A340F2795258
:10325000DBA1BFA00FF0E8FF00BF6FF0090070BD59
:1032600000BF346A00BF5CB900BFAAA340F27B5222
:10327000DCA1B7A00FF0D8FF00BF6FF00800EEE7A9
:1032800000BF00224FF49A71104604F033FCE06155
:10329000E06910B94FF0FF30E1E7607820B9DA4813
:1032A0000068401CD8490860D74800686060E06941
:1032B000406820620120216A0870216A4870062057
:1032C000216A88700020216AC870606803F0FCF8E9
:1032D000216A48600020216A0881216A4881216AA8
:1032E000C86020780A2805D02078052802D02078E8
:1032F000042802D17068216AC8600020216A086130
:10330000216A4861216A886100250DE096F828004D
:10331000A84203DD06F12900405D00E00020216A9B
:103320001C314855681C85B2102DEFD3002505E0EF
:103330000021206A2C304155681C85B2402DF7D3FE
:10334000002505E00021206A6C304155681C85B2DB
:10335000802DF7D3AD4803F0B7F8216AC1F8EC002F
:103360000020A084002504E0206AF0304555681C48
:1033700085B2442DF8D3002071E702788A4202D04A
:103380000170002242707047F8B505462C6A00268D
:103390009F4808B9002001E09D480068206306218D
:1033A0002046FFF7EAFF2846FFF749FF0646002EB2
:1033B0003ED1012235212046FFF724FF012120467E
:1033C000FFF719FF022239212046FFF71BFF298E44
:1033D0002046FFF725FF042237212046FFF712FF82
:1033E00001212046FFF707FF03212046FFF703FFD7
:1033F0001C212046FFF7FFFE06212046FFF7FBFEBB
:103400002046FFF7CFFEA28CF03291B2E06904F0C3
:103410002CFC43227E49A06808F015F80095432350
:103420007C4AE169A06807F072FF2846FFF792FE28
:103430006078401C60706078062803DA61780120AB
:10344000884000E03C2000EB4001C1EBC0104FF68B
:10345000FF7101EAC00707F2F3104FF4FA7190FB15
:10346000F1F0E0843046F8BD70B50446256A204688
:1034700004F0F4FA6649204604F016FA644920463E
:1034800004F006FA6249204604F008FA0C212846A6
:10349000FFF773FF2046FFF777FF70BD2DE9F0417E
:1034A00005462C6A08212046FFF767FF002204F139
:1034B0003001284602F03CFC07466078401C6070F2
:1034C0004FF4FA7606F2F310314690FBF1F0E08407
:1034D000BDE8F08110B50B0E848C621C8284026AF8
:1034E000F0321355C1F30743848C621C8284026A54
:1034F000F0321355C1F30723848C621C8284026A64
:10350000F0321355848C621C8284026AF0321155A9
:1035100010BD00002E2E5C4C5749505C7372635CEA
:10352000636F72655C646863702E630064686370C7
:103530005F64656C6574655F726571756573743A17
:10354000206E6574696620213D204E554C4C00006C
:10355000417373657274696F6E2022257322206631
:1035600061696C6564206174206C696E65202564F6
:1035700020696E2025730A00646863705F64656C5F
:103580006574655F726571756573743A206468630C
:103590007020213D204E554C4C0000006468637043
:1035A0005F6F7074696F6E5F747261696C65723A97
:1035B000206468637020213D204E554C4C00000073
:1035C000646863705F6372656174655F726571756D
:1035D0006573743A206E6574696620213D204E55EE
:1035E0004C4C0000646863705F6372656174655F72
:1035F000726571756573743A206468637020213D4B
:10360000204E554C4C000000940000206353826310
:10361000E04C0108E44C01082DE9F84305462C6A0A
:1036200001212046FFF7A9FE2846FFF708FE0646BF
:10363000002E58D1012235212046FFF7E3FD03215A
:103640002046FFF7D8FD022239212046FFF7DAFD98
:10365000298E2046FFF7E4FD042232212046FFF7A1
:10366000D1FD206B03F038F8804641462046FFF735
:1036700031FF042236212046FFF7C4FDE06A03F043
:103680002BF8804641462046FFF724FF04223721CD
:103690002046FFF7B7FD01212046FFF7ACFD0321CF
:1036A0002046FFF7A8FD1C212046FFF7A4FD0621B8
:1036B0002046FFF7A0FD2046FFF774FDA28CF032F4
:1036C00091B2E06904F0D1FA00954323FB4AE16925
:1036D000A06807F01CFE4322F949A06807F0B3FE7A
:1036E0002846FFF737FD6078401C60706078062838
:1036F00003DA61780120884000E03C2000EB4001C3
:10370000C1EBC0104FF6FF7101EAC00707F2F310DA
:103710004FF4FA7190FBF1F0E0843046BDE8F88395
:10372000014611F8013B180611F8013B40EA03403D
:1037300011F8013B40EA032011F8012B10437047B8
:1037400070B503460D4600265869002847D0188BEF
:10375000002844DD5A69002114E0505C342806D169
:10376000881C81B208464C1CA1B2165C0AE0505C71
:10377000A84201D1501870BD481C81B2505C401C59
:10378000084481B2188B884202DD505CFF28E4D1E6
:1037900026B3012E04D1186900F16C0280240AE0DE
:1037A000022E04D1186900F12C02402403E01869AC
:1037B00000F12C02C02400210AE0505CA84201D193
:1037C0005018D8E7481C81B2505C401C084481B2B4
:1037D000A14202DA505CFF28EFD100BF00BF0020F9
:1037E000C9E72DE9F04105462C6A36212046FFF74E
:1037F000A7FF064686B1B01CFFF792FF074602F00E
:1038000063FEE0622069103000D101E020690069A8
:1038100020632846FFF700FFBDE8F081F8B50546B4
:103820002C6A05212046FFF7A8FD2846FFF707FD73
:1038300006465EBB012235212046FFF7E3FC03214B
:103840002046FFF7D8FC022239212046FFF7DAFC98
:10385000298E2046FFF7E4FC2046FFF7A3FCA28C4C
:10386000F03291B2E06904F000FA432204F12C0135
:10387000A06807F0E8FD0095432304F12C02E169FC
:10388000A06807F044FD2846FFF764FC6078401C00
:10389000607060780A2805DA60784FF4FA6110FBEE
:1038A00001F001E044F6206087B207F2F3104FF414
:1038B000FA7190FBF1F0E0843046F8BD70B5054632
:1038C0002C6A2078012805D020780A2802D0207898
:1038D000052802D12846FFF7A1FF70BDF8B50546BF
:1038E0002C6A04212046FFF748FD2846FFF7A7FC75
:1038F00006464EBB012235212046FFF783FC0321FB
:103900002046FFF778FC022239212046FFF77AFC97
:10391000298E2046FFF784FC2046FFF743FCA28C4B
:10392000F03291B2E06904F0A0F943226449A06842
:1039300007F089FD00954323604AE169A06807F01C
:10394000E6FC2846FFF706FC6078401C6070607853
:103950000A2805DA60784FF47A7110FB01F001E073
:1039600042F2107087B207F2F3104FF4FA7190FB35
:10397000F1F0E0843046F8BD70B505462C6A207839
:10398000012805D020780A2802D02078052802D105
:103990002846FFF7A3FF70BD10B54A48046817E03A
:1039A000206AA0B1206A418D481E226A50850129F3
:1039B00003D12046FFF7E0FF09E0206A018D481E91
:1039C000226A1085012902D12046FFF777FF24687B
:1039D000002CE5D110BDF8B505462C6A0D21204616
:1039E000FFF7CBFC0020E06260632063E063A0632C
:1039F00060652065E06420642846FFF720FC0646E9
:103A000016BB012235212046FFF7FCFB072120468B
:103A1000FFF7F1FB2046FFF7C5FBA28CF03291B215
:103A2000E06904F022F9432204F12C01A06807F0B8
:103A30000AFD0095432304F12C02E169A06807F018
:103A400066FC2846FFF786FB6078401C6070607853
:103A50000A2805DA60784FF47A7110FB01F001E072
:103A600042F2107087B207F2F3104FF4FA7190FB34
:103A7000F1F0E084284603F0F1FF1149284603F0F5
:103A800013FF0F49284603F003FF0D49284603F0B2
:103A900005FF3046F8BD2DE9FC41064600BF66B97A
:103AA00000BFAFF2905340F2533207A1AFF2605023
:103AB0000FF0BAFB00BFBDE8FC8113E0E44C010845
:103AC000E04C0108D8000020646863705F62696E92
:103AD000643A206E6574696620213D204E554C4C39
:103AE0000000000000BF346A00BF5CB900BFAFF245
:103AF000DC5340F25532F8A1AFF2AC500FF094FB1A
:103B000000BFD8E700BF206D401C0ED0206D1E30D6
:103B10003C21B0FBF1F5B5F5803F01D34FF6FF75C1
:103B20002585208D08B901202085606D401C0ED0B0
:103B3000606D1E303C21B0FBF1F5B5F5803F01D33F
:103B40004FF6FF756585608D08B90120608514F119
:103B5000340000D100E0606B01900198C0B9019879
:103B600002F0BAFD070E7F2F05DC4FF07F4002F018
:103B7000ABFC01900BE0C02F05DB6FF0FF0002F003
:103B8000A3FC019003E0DA4802F09EFC019000BF24
:103B900014F1380000D100E0A06B0090009848B903
:103BA000206B019908400090012002F08DFC0099E3
:103BB0000843009004F13001304603F075FE01A97E
:103BC000304603F06BFE6946304603F061FE304636
:103BD00003F02EFF0A212046FFF7CFFB00BF6AE764
:103BE00070B505462C6A20780C2802D0207806286B
:103BF00003D12846FFF7C8FB35E0207801280DD116
:103C00006078052803DC2846FFF706FD2BE02846F0
:103C1000FFF7E1FE2846FFF7B7FB24E020780828ED
:103C20000AD16078012803DC2846FFF737FC1AE048
:103C30002846FFF730FF16E02078052803D12846F4
:103C4000FFF7ECFD0FE0207804280CD160780828FD
:103C500003DC2846FFF742FE05E02846FFF7BBFEDF
:103C60002846FFF791FB70BD10B5A248046818E024
:103C7000206AA8B1206AC08C012805DD206AC08CAA
:103C8000401E216AC8840BE0206AC08C012807D13D
:103C9000206AC08C401E216AC8842046FFF7A0FF1E
:103CA0002468002CE4D110BD0146087870472DE946
:103CB000F04107463C6A00206063A063E063332163
:103CC0002046FFF73DFD05461DB1A81CFFF728FD66
:103CD000E0643A212046FFF733FD054625B1A81CD4
:103CE000FFF71EFD206502E0E06C400820653B21E7
:103CF0002046FFF725FD054625B1A81CFFF710FD5E
:103D0000606501E0E06C60652069103000D101E081
:103D100020690069206301212046FFF711FD054657
:103D200035B1A81CFFF7FCFC064602F0CDFB606332
:103D300003212046FFF704FD054635B1A81CFFF717
:103D4000EFFC064602F0C0FBA0631C212046FFF7F3
:103D5000F7FC054635B1A81CFFF7E2FC064602F069
:103D6000B3FBE06306212046FFF7EAFC054645B3B6
:103D7000681CFFF799FF80082064206C022801D995
:103D800002202064002614E0022101EB860148197C
:103D9000FFF7C6FC804602F097FB04F1440141F8AE
:103DA0002600084600EB8601304601F0DBFA701C65
:103DB000C6B2206CB042E7D84F49304601F0D2FA83
:103DC00000BFBDE8F08110B50446206920B120692C
:103DD00003F0A7FB00202061606928B1606903F04F
:103DE000A0FB00206061208310BD70B505462C6AE1
:103DF00000BF5DB900BFAFF6E40340F262423FA1ED
:103E0000AFF6B4000FF010FA00BF70BD00BF95F818
:103E1000320020F0080085F83200ACB1A06820B173
:103E2000A06807F050FB0020A060E06820B1E068C7
:103E300003F030FE0020E0602046FFF7C4FF20467C
:103E400003F06FFB0020286200BFDEE770B5044678
:103E500000BF6CB900BFAFF6441340F2C6422EA1BA
:103E6000AFF614100FF0E0F900BF6FF0090070BD5D
:103E700000BF00BFE06868B900BFAFF6681340F24A
:103E8000C74229A1AFF638100FF0CEF900BF6FF08E
:103E90000800ECE700BF2046FFF795FFE0680089C7
:103EA000F0280CD9E0680089F0382083208B03F0DB
:103EB000E0FB6061606910B94FF0FF30D7E7F02098
:103EC00003F0D7FB20612069B0BB606903F029FBD8
:103ED00000206061401ECAE7646863705F62696EBB
:103EE000643A206468637020213D204E554C4C009C
:103EF0000000FFFFD8000020E04C010864686370F8
:103F00005F73746F703A206E6574696620213D207E
:103F10004E554C4C000000006468637020213D2029
:103F20004E554C4C00000000646863702D3E7020BC
:103F3000213D204E554C4C00FFE70023F022D4E9F0
:103F4000030103F0D3FF0546606930B1228BF023F3
:103F50006169E06803F0CAFF0546002087E72DE9A4
:103F6000F05F82461746D046D8F82040D7F804B014
:103F7000E7609BF80000022800D067E000260AE016
:103F800008F12900815D0BF11C00805D814200D0A9
:103F90005CE0701CC6B298F82800B042F0DCDBF898
:103FA000040002F099FB6168884200D04EE0204690
:103FB000FFF74CFF00B149E035212046FFF7C0FB79
:103FC0008146B9F1000F00D140E009F10200FFF78E
:103FD0006BFE0546052D1AD12078012808D14046F0
:103FE000FFF765FE0020E0844046FFF757FA2CE01B
:103FF0002078032805D02078042802D020780528CE
:1040000023D10020E0844046FFF745FD1DE0062D4A
:1040100011D12078032808D02078012805D02078F5
:10402000042802D02078052805D10020E0844046ED
:10403000FFF71AFA09E0022D07D12078062804D1EB
:104040000020E0844046FFF7CCFB00BF2046FFF78E
:10405000BAFE384603F01EFD0020E060BDE8F09F88
:1040600070B50546002600BF6DB900BFAFF65C33E2
:1040700040F2412297A1AFF628300FF0D5F800BFEB
:104080006FF0090070BD00BF2C6A95F8320020F077
:10409000080085F83200288EB0F5107F02DA4FF064
:1040A000FF30EFE74CB9582003F0E3FA044614B9A7
:1040B0004FF0FF30E6E72C620CE08AA00FF0B4F876
:1040C000A06810B1A06807F0FEF9E06810B1E068E0
:1040D00003F0E0FC582120460FF026FC07F011FA0F
:1040E000A060A06838B9204603F01BFA00200446FF
:1040F0002862401EC6E744228649A06807F0C4F83B
:1041000043228449A06807F09EF92A468249A068A4
:1041100007F0D6F92846FFF737F906462EB12846AC
:10412000FFF763FE4FF0FF30ACE795F8320040F048
:10413000080085F832003046A4E7F8B505462E6A37
:104140000027582003F095FA044604B9F8BD2C6204
:10415000582120460FF0E8FB07F0D3F9A060A068D3
:1041600018B9204603F0DDF9F0E72846FFF767F8B5
:104170000746002F33D1012235212046FFF742F8B0
:1041800008212046FFF737F8022239212046FFF7A1
:1041900039F8298E2046FFF743F82046FFF702F84A
:1041A000A28CF03291B2E06903F05FFD44225949DC
:1041B000A06807F069F843225849A06807F043F95E
:1041C00000954323554AE169A06807F0A0F843220F
:1041D0005049A06807F037F92846FEF7BBFFA068F2
:1041E00010B1A06807F06FF90020A060204603F02E
:1041F00098F92E6200BFA9E72DE9F84305462C6A1D
:1042000000260C212046FFF7B8F82846FFF717F8DC
:1042100006466EBB012235212046FEF7F3FF04213E
:104220002046FEF7E8FF042232212046FEF7EAFF8F
:10423000206B02F051FA804641462046FFF74AF9CA
:104240002046FEF7AFFFA28CF03291B2E06903F096
:104250000CFD43222F49A06807F0F5F80095432391
:104260002E4AE169A06807F052F82846FEF772FF6F
:104270006078401C607042F2107707F2F3104FF440
:10428000FA7190FBF1F0E0843046BDE8F88370B538
:1042900004460D4600BF5CB900BFAFF6885340F23C
:1042A000CF220CA1AFF658500EF0BEFF00BF70BD7C
:1042B00000BF206A58B1206A0078082807D1286812
:1042C000216A096B884202D12046FFF795FF00BFA3
:1042D000EDE700006E6574696620213D204E554C67
:1042E0004C0000002D2D2D2D2D2D2D616C72656142
:1042F000647920686173206468637020636C696509
:104300006E742061747461636865642D2D2D2D2D8C
:104310002D0A0000E04C01085F3F0008E44C010852
:10432000406580657047426D91654A658865416565
:104330007047416D426D8A65516580654065704783
:1043400070B502460C460021002300BF17E0002193
:1043500011E010780D46491C0126AE40304200D0D5
:1043600009E010784D1E29460126AE4030431070FA
:1043700001EBC30070BD0829EBDB5B1C521CA342A0
:10438000E5DB4FF0FF30F5E730B50B46CD1701EB1D
:104390005575ED10A1EBC504CD1701EB5575EA106D
:1043A000652A04D2835C0125A540AB43835430BD0C
:1043B0002DE9F0410446676AA06802F08DF9804655
:1043C00065213846FFF7BCFF0546002D03DB05F1EC
:1043D0006400C82802DD0020BDE8F081606802F0BA
:1043E0007BF900EA080605F164000644304602F055
:1043F0006BF8F1E72DE9F04105460E466F6AC020E3
:10440000C45909E01022214630460FF03BF910B99B
:104410002046BDE8F081A46D07F168008442F1D127
:104420000020F6E72DE9F047064688461746D6F8FD
:1044300024905C2003F01DF9044614B90020BDE867
:10444000F0875C2120460FF06FFA214609F16800E1
:10445000FFF769FF3046FFF7ABFF054625B9204659
:1044600003F05FF80020EAE7256510224146204668
:104470000FF077F94022394604F110000FF071F97E
:104480002046DCE72DE9F04705460C46D5F82480A8
:10449000A86802F021F981460CB9BDE8F087206DCB
:1044A00002F01AF9064626EA0900A0F16407394627
:1044B0004046FFF769FF2046FFF73BFF204603F029
:1044C00030F800BFE9E710B50446D4F8D40030B1A5
:1044D000D4F8D40003F025F80020C4F8D400D4F8B0
:1044E000D80040B154F8D80F03F01BF8002020602A
:1044F000A080A4F1D80410BD70B5044600BF54B923
:1045000000BFECA3E622F2A1F5A00EF08DFE00BFE5
:104510006FF0090070BD00BF00BFD4F8D00050B9E3
:1045200000BFE4A3E722F8A1EDA00EF07DFE00BFDE
:104530006FF00800EEE700BF2046FFF7C4FFD4F895
:10454000D0000089F0280FD954F8D00F0089F03836
:10455000A081A08903F08DF8A060A068A4F1D00428
:1045600010B94FF0FF30D5E7F02003F082F8C4F81F
:10457000D400D4F8D40040B9D4F8D80002F0D1FF68
:104580000020C4F8D800401EC4E704F1D0044FF066
:1045900000034FF0F002D4E9000103F0A7FC054648
:1045A000A068A4F1D00450B104F1D004A289A1689C
:1045B00054F8D0094FF0F00303F098FC05460020B2
:1045C000A8E770B503460D460026D3F8D8000028AA
:1045D0004DD0B3F8DC00002849DDD3F8D820002105
:1045E00014E0505C342806D1881C81B208464C1C6B
:1045F000A1B2165C0AE0505CA84201D1501870BD0F
:10460000481C81B2505C401C084481B2B3F8DC0005
:10461000884202DD505CFF28E3D13EB3012E05D174
:10462000D3F8D40000F16C0280240CE0022E05D1F6
:10463000D3F8D40000F12C02402404E0D3F8D400D5
:1046400000F12C02C02400210AE0505CA84201D1F4
:104650005018D4E7481C81B2505C401C084481B219
:10466000A14202DA505CFF28EFD100BF00BF00205A
:10467000C5E72DE9F0410646746AD4F8C47000BF5E
:10468000002E0CD100BF8BA34FF4B372A2A194A053
:104690000EF0CAFD00BF6FF00900BDE8F08100BF59
:1046A00000BF002C0BD100BF82A340F26712A3A170
:1046B0008BA00EF0B9FD00BF6FF00800EDE700BF62
:1046C00000224FF49A71104603F014FAC4F8E00087
:1046D000D4F8E00010B94FF0FF30DEE704F1C80471
:1046E000A0694068E0614FF00200E16908704FF096
:1046F0000100E16948704FF00600E16988704FF0F1
:104700000000E169C870206801F0DEFEE1694860E0
:104710000020E16908814FF4004001F0D1FFE16918
:1047200048810020E169C860386DE16908610020B6
:10473000E1694861E169A4F1C804886105460CE0BB
:1047400096F82800A84201DD785D00E00020D4F84A
:10475000E4101C314855681C85B2102DF0D300259B
:1047600006E00021D4F8E4002C304155681C85B2E5
:10477000402DF6D3002506E00021D4F8E4006C308B
:104780004155681C85B2802DF6D3754801F09CFE1A
:10479000D4F8E410C1F8EC000020A4F8E8000025EB
:1047A00005E0D4F8E400F0304555681C85B2442D8E
:1047B000F7D3002071E710B500F1E400848804F11C
:1047C00001038380036803F1F0031955848804F121
:1047D0000103838050F8E43903F1F0031A5510BD4A
:1047E00000F1E400838803F10102828050F8E4299B
:1047F00002F1F002D154704710B50B0E00F1E40045
:10480000848804F101028280026802F1F0021355EB
:10481000C1F30743848804F101028280026802F137
:10482000F0021355C1F30723848804F1010282804A
:10483000026802F1F0021355848804F101028280BB
:1048400050F8E42902F1F002115510BD10B50446EC
:1048500000BF002C09D100BF16A34FF4E77241A19D
:104860001FA00EF0E1FC00BF10BD00BFFF2104F14E
:10487000E404A28802F10100A08054F8E40900F1E8
:10488000F00081540BE0002104F1E404A28802F15D
:104890000100A08054F8E40900F1F0008154B4F85C
:1048A000E8004428EFD394F8E80010F0030FEAD1B1
:1048B00000BFD9E72E2E5C4C5749505C7372635C85
:1048C000636F72655C646863707372762E63000058
:1048D0006468637020213D204E554C4C0000000060
:1048E000417373657274696F6E202225732220668E
:1048F00061696C6564206174206C696E6520256453
:1049000020696E2025730A00646863702D3E702054
:10491000213D204E554C4C00646863705F637265A6
:104920006174655F726571756573743A206E657444
:10493000696620213D204E554C4C00006468637030
:104940005F6372656174655F726571756573743AF2
:10495000206468637020213D204E554C4C000000BF
:1049600063538263646863705F6F7074696F6E5FB6
:10497000747261696C65723A206468637020213DCD
:10498000204E554C4C00000070B5054600BF002D70
:104990000BD100BFAFF2E40340F2E312F8A1AFF293
:1049A000C0000EF041FC00BF70BD00BF6C6A00BFCC
:1049B000002C0BD100BFAFF2041340F2E512F9A1B5
:1049C000AFF2E4000EF030FC00BFEDE700BFD4F81A
:1049D000E00018B1D4F8E00003F05CF80020C4F85F
:1049E000E000C4F8E40000BFDEE72DE9FE4F054615
:1049F0000F466C6AD4F8C4000290029800F1500689
:104A00002846FFF736FE8046B8F1000F7ED101221E
:104A100035212046FFF7CFFE27B906212046FFF7B4
:104A2000DFFE1EE0306801F057FE00F0FF0930683D
:104A300001F052FEC0F3072A306801F04DFEC0F3CA
:104A4000074B306801F048FE000E53465A460146B7
:104A5000CDE90090DCA00EF0E7FB05212046FFF732
:104A6000BFFE042236212046FFF7A5FE686801F04C
:104A700033FE814649462046FFF7BEFE042233211D
:104A80002046FFF798FEDB4801F026FE81464946A6
:104A90002046FFF7B1FE042201212046FFF78BFEDE
:104AA000A86801F019FE814649462046FFF7A4FE9A
:104AB000042203212046FFF77EFEE86801F00CFE89
:104AC000814649462046FFF797FE082206212046E8
:104AD000FFF771FE002000F053FC019001F0FCFD97
:104AE000814649462046FFF787FE012000F048FC3A
:104AF000019001F0F1FD814649462046FFF77CFE1A
:104B00002046FFF7A3FE04F1CC0400E016E0A28BE0
:104B100002F1F00291B2606903F0A7F84422B649AD
:104B2000206806F090FC0095616954F8CC09442394
:104B3000B24A06F0ECFB2846FFF726FF4046BDE8E8
:104B4000FE8FF8B50446656A2046FFF792FD0646DB
:104B5000002E7CD1012235212846FFF72CFE0221B0
:104B60002846FFF73DFE042236212846FFF723FEA4
:104B7000606801F0B1FD074639462846FFF73CFE64
:104B8000042233212846FFF716FE9A4801F0A4FDBF
:104B9000074639462846FFF72FFE04223A212846C9
:104BA000FFF709FE964801F097FD0746394628466B
:104BB000FFF722FE04223B212846FFF7FCFD914827
:104BC00001F08AFD074639462846FFF715FE042204
:104BD00001212846FFF7EFFDA06801F07DFD0746A3
:104BE00039462846FFF708FE042203212846FFF72E
:104BF000E2FDE06801F070FD074639462846FFF700
:104C0000FBFD082206212846FFF7D5FD002000F015
:104C1000B7FB009001F060FD074639462846FFF7D4
:104C2000EBFD012000F0ACFB009001F055FD0746C4
:104C300039462846FFF7E0FD2846FFF707FE05F155
:104C4000CC05AA8B02F1F00291B2686900E011E094
:104C500003F00BF844226849286806F0F4FB00943E
:104C6000696955F8CC094423644A06F050FB204694
:104C7000FFF78AFE3046F8BD0146087870470146C6
:104C800011F8013B180611F8013B40EA034011F806
:104C9000013B40EA032011F8012B104370472DE936
:104CA000FF4F83B08346D846D8F82440059845681E
:104CB0000026D8F8080001F00FFD029001200090B6
:104CC0005C2151480EF030FE0598C4F8D0002878D9
:104CD000012800D022E14D4801F0F6FBD5F8EC1098
:104CE000884200D01AE1686801F0F6FCC4F8C800F8
:104CF0002046FFF701FC00B110E105F11C01404620
:104D0000FFF778FB064635212046FFF75AFC074699
:104D10001FB93FA00EF088FA00E1B81CFFF7ACFF06
:104D20008146B9F1010F20D1CEB940A00EF07CFA36
:104D300005F12C0205F11C014046FFF773FB064606
:104D40006EB9102205F11C012F480EF00AFD2E4805
:104D5000C4F8C40000214046FFF747FEDEE0C4F877
:104D6000C4604046FFF7EDFED7E0B9F1030F67D10D
:104D700036212046FFF725FC074607B961E064E0CD
:104D8000646863705F64656C6574655F7265717596
:104D90006573743A206E6574696620213D204E5516
:104DA0004C4C0000646863705F64656C6574655F9B
:104DB000726571756573743A206468637020213D73
:104DC000204E554C4C00000061737369676E65643A
:104DD0002069702025642C25642C25642C256420F2
:104DE00066726F6D20444843502073657276657219
:104DF000200A000000093A80E04C0108E44C010858
:104E0000000490C00007FD506405002063538263D6
:104E10006572726F722063616E742066696E6420C1
:104E2000706F696E7465720A0000000068617665D3
:104E3000206F776D20746865206970200000000085
:104E400061E077A00EF0F0F953E0B81CFFF717FF10
:104E50008246D8F8040001F03FFC504503D07BA007
:104E60000EF0E2F95AE032212046FFF7AAFB07468E
:104E7000B81CFFF704FF824602992AEA010001905C
:104E8000019864280CDB0198C82809DCD8F80400D4
:104E900001F022FC029908400AEA0101884208D088
:104EA0000120009078A00EF0BFF97CA00EF0BCF9B4
:104EB0000EE06EB181A00EF0B7F9504601F004FB90
:104EC000316D884202D18CA00EF0AEF90020009026
:104ED00016B1C4F8C4600BE0102205F11C018B4828
:104EE0000EF03FFC8948C4F8C40089A00EF09CF97C
:104EF00000BF009808B9012000E0002001464046AC
:104F0000FFF773FD09E0B9F1070F06D188A00EF095
:104F10008BF931464046FFF7B5FA00BF2046FFF750
:104F2000D2FA059802F0B6FD0020C4F8D00007B010
:104F3000BDE8F08F2DE9F04105460026A86801F094
:104F4000CBFB074600BF75B900BFAFF2986340F2D4
:104F50000E327BA1AFF278600EF066F900BF6FF001
:104F60000900BDE8F08100BF6C6AF843C82800D38F
:104F700002E06FF00900F4E7288EB0F5107F02DA46
:104F80004FF0FF30EDE74CB9EC2002F072FB044625
:104F900014B94FF0FF30E4E76C620DE0D4F8CC00B8
:104FA00018B1D4F8CC0006F08EFAD4F8D00018B1BD
:104FB000D4F8D00002F06EFDEC2120460EF0B4FCD7
:104FC00004F16800FFF7ACF906F09BFAC4F8CC00D6
:104FD000D4F8CC0038B9204602F0A3FA00200446E9
:104FE0006862401EBDE754F8CC0F008940F02000F5
:104FF0002168088143225649206806F045F9442279
:105000005349206806F01FFA54F8CC092A46514942
:1050100006F056FA50A00EF007F93046A1E700005E
:1050200068617665206E6F2073657276657220699F
:1050300064206F7074696F6E2C736F2077652073B6
:10504000656E64206E6F61736B0A0000746869732B
:10505000206973206D756C74692D646863702073AA
:105060006572766572202C62656375736520646570
:1050700020736572766572206964206469646E7459
:10508000206D6163680A0000696E76616C69642056
:10509000697020616464726573730A00726571756A
:1050A00065737420696E7661696C64206970206133
:1050B000646472657373210A00000000686176659C
:1050C000207265676973746572656420696E207407
:1050D000686520636C69656E7420706F6F6C202C3E
:1050E000736F20757365206465206F6C6420616444
:1050F00064726573730A0000636C69656E74206D79
:1051000061746368206F6B0A000000006405002072
:1051100063616E6E27742066696E642072657175B6
:10512000657374656420636C69656E74210A0000A0
:10513000444843505F52454C454153450A000000E6
:105140006E6574696620213D204E554C4C00000070
:10515000E04C01089F4C000873746172742064680D
:10516000637020736572766572210A00014600BF84
:1051700011F8012B02F0C000C02800D108E002E0C5
:10518000491C501EC2B2002AFADC08780028EFD170
:1051900000BF481C704710B5024600BF11F8013B24
:1051A00003F0C000C02800D110E009E010780C78AE
:1051B000A04201D0012010BD491C521C581EC3B290
:1051C000002BF3DC521C08780028E7D100BF002038
:1051D000F1E72DE9FE4F1546DDF830B02889B0F52E
:1051E000007F00DDA1E028891A2800DA9DE02A89E5
:1051F0000023F749284602F079FE2989884272D1B6
:10520000F34E308801F05CFA00F0FF08B8F1040FAB
:1052100079DAC8EBC80000EB8000EE4901EBC0046E
:10522000207802286FD103202070F07800F00F0062
:105230006071B08801F044FA00F0FF0AF08801F0D4
:105240003FFA00F0FF09B07810F0800F04D06079C9
:1052500010B9BAF1010F00D056E0DD490C3104F16C
:105260000C00FFF798FF00B14EE0D9480C30FFF773
:105270007DFF071D43E03846FFF778FF0746386893
:105280000090786801903889ADF80800BDF80000FA
:1052900001F01CFA012827D1BDF8020001F016FA2E
:1052A000012821D1BDF8080001F010FA04281BD113
:1052B000019801F011FAA060C749A068884201D99D
:1052C0000846A060D7F80A10C4F80C11D4F81001F1
:1052D00040B104F5867104F10C00D4F81031D4F813
:1052E0001421984720E00EE0BDF8080001F0E8F92D
:1052F00007F10A014718A9F1010000F0FF09B9F10F
:10530000000FB8DC00E00FE0D4F8100138B1002144
:1053100004F10C00D4F81031D4F81421984700207F
:105320002070C4F8100100BF00BF284602F0B2FB95
:10533000BDE8FE8F10B5A948006890B906F0E1F805
:10534000A64908600846006858B10022A449A3484D
:10535000006805F099FF0022A249A048006806F005
:10536000AFF810BD02280ADA9C4A12683AB131B18E
:105370000A6822B19C4A02EB80020B6813607047F6
:105380000CB50146022905DA974800EB8100006858
:1053900001900CBD924800680090FAE72DE9F74FA4
:1053A00082B08046894600224FF48871104602F090
:1053B000A1FB0746002F57D07E6800203060706048
:1053C000B060049801F07CF930800120B07001F0E9
:1053D00077F9B08006F10C044D466D1E00BF6D1CC0
:1053E000A346641C0020009007E028782070641C0D
:1053F0000098401CC0B200906D1C28782E2802D066
:1054000028780028F1D100988BF80000287800282F
:10541000E5D104F8010B012001F052F9ADF80400C8
:10542000012001F04DF9ADF8060001982060BA881E
:10543000201D801A81B2384602F017FC6A4800EB42
:10544000880135226548006805F0FDFF664800EBDD
:105450008802352339466148006805F0D3FF82464B
:10546000384602F017FB01E04FF0FF3A504605B016
:10547000BDE8F08F70B50546C5EBC50000EB8000B8
:10548000544901EBC0042078002855D0012804D0ED
:10549000022811D0032850D146E0022020700020BD
:1054A00060700120A0700020E07060782A4604F14E
:1054B0000C01FFF773FF41E0A078401E10F0FF00E1
:1054C000A07030D1E078401CC0B2E070042822D136
:1054D0006078401C02280EDA6078401C424901EBDB
:1054E0008000006838B16078401C60700120A070B6
:1054F0000020E07022E0D4F8100138B1002104F15E
:105500000C00D4F81031D4F81421984700202070F2
:10551000C4F8100112E0E078A07060782A4604F127
:105520000C01FFF73BFF09E0A068401EA06002D11C
:105530002070C4F8100101E000E000BF00BF70BDA2
:1055400010B5002404E02046FFF794FF601CC4B2AD
:10555000042CF8DB10BD10B52048006808B1FFF737
:10556000EFFF10BD70B50546002421E0C4EBC40078
:1055700000EB8000174911F83000032816D1C4EB66
:10558000C40000EB80000A4602EBC00000F10C01F1
:1055900028460EF0F1F948B9C4EBC40000EB8000D6
:1055A0000C4901EBC000D0F80C0170BD601CC4B206
:1055B000042CDBDB4FF0FF30F7E72DE9F04707461F
:1055C000884691460024002006468246002529E0B0
:1055D000200A0020C0050020803A09009800002021
:1055E000E04C0108D35100089D000020C5EBC50028
:1055F00000EB8000344901EBC004207800B913E0CF
:10560000207803280CD1207930490978081A5045B0
:1056100006DD20792D490978081A00F0FF0A2E4688
:10562000681CC5B2042DE1DB00BF042D16D1042E89
:1056300008DAC6EBC60000EB8000234911F8300001
:10564000032803D04FF0FF30BDE8F0873546C5EBA7
:10565000C50000EB80001C4901EBC0040120207054
:105660001A480078207119480078401C17490870C2
:10567000C4F81081C4F81491394604F10C000EF0FE
:105680002DF82846FFF7F6FE6FF00D00DCE72DE958
:10569000F04104460D4616461F460D48006840B1CD
:1056A0003DB134B1207820B120460EF03BF8FF2800
:1056B00003D96FF00800BDE8F0813A463146204634
:1056C000FFF77BFFF7E70000C00500209C000020EB
:1056D0009800002070B5044608E0254624686868F4
:1056E00002F0D8F92946062002F08DF8002CF4D1FA
:1056F00070BD10B5002446E004EB8400F64901EBD0
:105700008000C07B401C04EB8401F34A02EB810162
:10571000C87304EB8400114601EB8000807B0228F3
:1057200006D104EB840001EB8000C07BF0280EDA88
:1057300004EB8400E84901EB8000807B012820D144
:1057400004EB840001EB8000C07B022819DB04EB32
:105750008400E14951F8200060B104EB8401DE4A85
:1057600052F82100FFF7B6FF002004EB8401DA4A6B
:1057700042F82100002004EB8401D74A02EB8101AA
:105780008873601CC4B20A2CB6DB10BD2DE9FC5F27
:1057900005460F464FF00A08C1460A260024A346D4
:1057A00000200190B2460090CDB1CC48007800EBCB
:1057B0008000C94901EB8000807B02280FD1286856
:1057C000C649097801EB8101C34A02EB81014968AE
:1057D000884204D1C148007840B2BDE8FC9F002453
:1057E00073E00A2E08D104EB8400BB4901EB800072
:1057F000807B08B966B266E004EB8400B64901EB31
:105800008000807B012836D165B1286804EB8401D3
:10581000B14A02EB81014968884203D1AF48047064
:1058200060B2DAE704EB8400AB4951F8200088B19C
:1058300004EB840001EB8000C17B0098814242DBD5
:105840004FFA84FA04EB8400A34901EB8000C07B8B
:10585000009038E004EB84009F4901EB8000C07B9E
:10586000584530DB4FFA84F804EB840001EB8000EC
:1058700090F80FB027E004EB8400974901EB80001B
:10588000807B02281FD165B1286804EB8401924A0D
:1058900002EB81014968884203D19048047060B2EC
:1058A0009BE704EB84008C4901EB8000C17B0198ED
:1058B000814208DB4FFA84F904EB8400864901EB4E
:1058C0008000C07B0190601CC4B20A2C89DB0A2EC8
:1058D00002D117F0010F02D017F0020F02D04FF0E3
:1058E000FF307AE70A2E01DAF4B221E0B9F10A0FAB
:1058F00002DA09F0FF041BE0B8F10A0F02DA08F03F
:10590000FF0415E0BAF10A0F0FDA0AF0FF0404EB06
:105910008401714A52F82100FFF7DCFE002004EBFD
:1059200084016D4A42F8210002E04FF0FF3054E755
:10593000002004EB8401684A02EB8101887345B1C1
:1059400005B900E0286804EB8401634A02EB810199
:105950004860002004EB84015F4A02EB8101C873B8
:105960005E48047060B238E72DE9F04706460F46FE
:10597000904699467D68062408E0601EC4B219F876
:105980000400285518F80410A81D0155002CF4DC5B
:105990004FF4006000F094FEA88139463046B269A9
:1059A0009047BDE8F0872DE9F05F07460D46904629
:1059B0009A469DB1286888B13946284601F058F9C1
:1059C00060B94FF0704000F087FE296800EA0109D5
:1059D0004FF0604000F080FE814503D16FF0090078
:1059E000BDE8F09F51462846FFF7D0FE0446002C44
:1059F00001DA2046F4E7022004EB8401364A02EB88
:105A00008101887304EB8400114601EB800007617B
:105A100006260AE0701EC6B218F8061004EB8400D1
:105A20002D4A02EB800008308155002EF2DC002068
:105A300004EB8401284A02EB8101C8731CE004EBEB
:105A40008400254951F8209004EB8401224AD9F8BA
:105A5000000042F82100D9F804B04946062001F0C0
:105A6000D2FE434607F1290259463846FFF77CFF2C
:105A7000584602F00FF800BF04EB8400164951F8B5
:105A800020000028DBD100BFAAE72DE9F0418046C5
:105A90000D4616461F4602212846FFF777FE0446AC
:105AA000002C16DB04EB84000B4901EB8000807BAB
:105AB00002280ED104EB840001EB80000830306036
:105AC00004EB840001EB8000001D38602046BDE837
:105AD000F0814FF0FF30FAE7200C0020A5000020F5
